:020000040000FA
:0600000015EF1FF01200D5
:0600080004EF04F01200F9
:060018000CEF04F01200E1
:0608000015EF1FF01200CD
:06080800ACEF19F0120034
:06081800E1EF19F01200EF
:06082A000500513E000034
:100830000402000001000000503E0000FF01000023
:10084000010000009F3C0000FF00000001000000CC
:100850004A3E0000F901000006000000483E00008A
:08086000FD0000000200000091
:08086800D9CFE6FFE1CFD9FF73
:10087000020EE126FC0EDBCF00F1FD0EDBCF01F115
:10088000FE0EDBCF02F1F90EDBCF03F1FA0EDBCF68
:1008900004F1FB0EDBCF05F1F60EDBCF06F1F70E10
:1008A000DBCF07F1F80EDBCF08F1F40EDBCF09F157
:1008B000F50EDBCF0AF16E6A6D8C6D9CA09A696AA9
:1008C0006A6A686A140E6F6E01010B6B0C6B0D6B1C
:1008D0000E6B0F6B106BDE6ADD6ADECF10F0DDCFC2
:1008E00011F0D890115004E6100E105C000E115853
:1008F00029E2DECFE9FFDDCFEAFFD890E936EA361C
:10090000D890E936EA36110EE926010EEA22020EE7
:10091000E926000EEA22EE6AED6ADECFE9FFDDCFBE
:10092000EAFFD890E936EA36D890E936EA36110E71
:10093000E926010EEA22EE6AED6ADF2A010E01E3E2
:10094000DB2ACBD7000EE66EE66AE66EE66A1CECA2
:100950000CF0E552E552E552E552000EE66EE66A0D
:10096000E66EE66A3AEC0CF0E552E552E552E552E5
:10097000160E706E0101516B526B556B536B546BBD
:10098000566B0401080E016F800E026F040E036F98
:10099000880E006F056B880E066F040E076F400E01
:1009A000046F020EE15C02E2E16AE552E16EE5529B
:1009B000E7CFD9FF12006D860101010E556F6DBAA8
:1009C000FED70101040E556F1200E7EF04F068A096
:1009D00002D01AD8689068A202D06A6A689268A6A3
:1009E00002D078D8689668AC0CD001010B510C117C
:1009F00007E005D00CC1FAFF01010B51F96EFADFD7
:100A0000689C12006A6A1200D9CFE6FFE1CFD9FFD5
:100A1000020EE1260101516B526B6896536B546BC9
:100A2000040E556F566B68B6F8D7706A716A726AB1
:100A3000736A746A756A766A776A786A796A7A6AB2
:100A40007B6A7C6A7D6A7E6A7F6A6E6A686A6A6AA5
:100A5000DE6ADD6ADECF10F0DDCF11F0D8901150E4
:100A600004E6060E105C000E115814E2DECFE9FF1A
:100A7000DDCFEAFFD890E936EA36D890E936EA3693
:100A8000000EE926040EEA22EF6A040EDE26000EAE
:100A9000DD22E0D7160E706E0401080E016F800E85
:100AA000026F040E036F880E006F056B880E066FD1
:100AB000040E076F400E046F6B686D98E1EC18F040
:100AC000020EE15C02E2E16AE552E16EE552E7CF37
:100AD000D9FF12006CCF57F101015751FC0BE842CE
:100AE000E842040DF3CF58F1F4CF59F1000E582726
:100AF000040E5923040E5711FC0BE842E842040D82
:100B0000F3CF5AF1F4CF5BF1000E5A27040E5B23AA
:100B100058C1E9FF59C1EAFFEF503C0B240A0AE033
:100B2000200A05E0300A01E008D008D806D0BDEC64
:100B30000BF003D090EC0BF000D012005AC1E9FF8B
:100B40005BC1EAFF080EEF6E6D9858C1E9FF59C10D
:100B5000EAFF020EE926000EEA22EE50EFCFEAFF8E
:100B6000E96EEF50600B400A42E0600A34E0200A70
:100B700001E049D058C1E9FF59C1EAFF020EE92658
:100B8000000EEA22EE50EFCFEAFFE96EEF50030BC2
:100B9000020A15E0030A0BE0010A01E019D058C16E
:100BA000E6FF59C1E6FF7DD8E552E55213D058C1A2
:100BB000E6FF59C1E6FF9BDBE552E5520BD058C179
:100BC000E6FF59C1E6FF28EC0AF0E552E55202D0F3
:100BD000C2EC0CF01AD001010D510E1107E005D046
:100BE0000EC1FAFF01010D51F96EFADF0ED00101BD
:100BF0000F51101107E005D00EC1FAFF01010D5190
:100C0000F96EFADF02D0C2EC0CF058C1E9FF59C10D
:100C1000EAFFEE52080EEF6E58C1E9FF59C1EAFF34
:100C2000020EE926000EEA22EE50EFCFEAFFE96E4F
:100C3000EF50800B24E158C1E9FF59C1EAFF020ED1
:100C4000E926000EEA22EE50EFCFEAFFE96E060E2B
:100C5000E926000EEA22EF5014E158C1E9FF59C11C
:100C6000EAFF020EE926000EEA22EE50EFCFEAFF7D
:100C7000E96E070EE926000EEA22EF5002E1000EAF
:100C800001D0010E000902E0C80E01D0880EE66E08
:100C900058C1E9FF59C1EAFFE552E750EF6E6D9880
:100CA0001200D9CFE6FFE1CFD9FF040EE126FD0EF9
:100CB000DBCFE9FFFE0EDBCFEAFF020EE926000ED6
:100CC000EA22EECFDEFFEDCFDDFFDECFE9FFDDCFA5
:100CD000EAFF010EE926000EEA22EF50070A01E1C1
:100CE000FBD20E0A01E1C6D2010A01E1A8D20E0A26
:100CF00001E1B6D0030A76E0060A57E0020A38E0BE
:100D0000010A01E0E9D201015151E66E5AC1E9FF41
:100D10005BC1EAFF020EE926000EEA22EE50EFCF99
:100D2000EAFFE96EE552E750EF6E52C110F0116A2A
:100D30005AC1E9FF5BC1EAFF020EE926000EEA2272
:100D4000EE50EFCFEAFFE96E010EE926000EEA222F
:100D500010C0EFFF020EE66EE66A5AC1E6FF5BC105
:100D6000E6FF9EEC0CF0E552E552E552E552B5D2B5
:100D7000DECFE9FFDDCFEAFF020EE926000EEA2210
:100D8000EF0410E101015193000EE66EE66A5AC1CC
:100D9000E6FF5BC1E6FF9EEC0CF0E552E552E55242
:100DA000E55202D0C2EC0CF098D2DECFE9FFDDCFE5
:100DB000EAFF020EE926000EEA22EF0410E101012B
:100DC0005183000EE66EE66A5AC1E6FF5BC1E6FF9C
:100DD0009EEC0CF0E552E552E552E55202D0C2EC31
:100DE0000CF07BD2DECFE9FFDDCFEAFF030EE92670
:100DF000000EEA22EF5031E17F0E106EDECFE9FFE8
:100E0000DDCFEAFF020EE926000EEA22EF50105C69
:100E100024E3DECFE9FFDDCFEAFF020EE926000E74
:100E2000EA22EFCF56F1E66EE66A5AC1E6FF5BC1F1
:100E3000E6FF9EEC0CF0E552E552E552E552920ECB
:100E4000E66E190EE66E000EE66EE66A1CEC0CF01D
:100E5000E552E552E552E55202D0C2EC0CF03DD22B
:100E6000DECFE9FFDDCFEAFF030EE926000EEA221E
:100E7000EF50040A01E1D4D1010A01E1D1D1060AFF
:100E800001E141D1010A3EE0030A01E0C9D100C1FC
:100E90005CF101C15DF102C15EF100C1F6FF01C16B
:100EA000F7FF02C1F8FF0800F55001015F6F606BAA
:100EB000DECFE9FFDDCFEAFF070EE926000EEA22CA
:100EC000EF501FE1DECFE9FFDDCFEAFF060EE92696
:100ED000000EEA22EFCF10F05CC1F6FF5DC1F7FF14
:100EE0005EC1F8FF0800F550105C0BE2DECFE9FFB1
:100EF000DDCFEAFF060EE926000EEA22EF505F6F13
:100F0000606B8FD1DECFE9FFDDCFEAFF020EE9266D
:100F1000000EEA22EFCF10F000C1F6FF01C1F7FF8B
:100F200002C1F8FF110EF626000EF722F822080083
:100F3000F550105C02E3C2EC0CF003C15CF104C19B
:100F40005DF105C15EF15CC1F6FF5DC1F7FF5EC1F9
:100F5000F8FF030EF626000EF722F8220800F550DF
:100F6000106E116A10C011F0106A5CC1F6FF5DC10D
:100F7000F7FF5EC1F8FF020EF626000EF722F822F8
:100F80000800F550010110245F6F000E1120606F02
:100F9000020EDB6A030EDB6A020EDBCF10F0030EDB
:100FA000DBCF11F0DECFE9FFDDCFEAFF020EE9264D
:100FB000000EEA22EF50000111AE02D0D89003D00B
:100FC000105C000E115836E25FC110F060C111F0E4
:100FD000126A105001015C2711505D2312505E23EC
:100FE0005CC1F6FF5DC1F7FF5EC1F8FF030EF62698
:100FF000000EF722F8220800F550106E116A10C09A
:1010000011F0106A5CC1F6FF5DC1F7FF5EC1F8FF29
:10101000020EF626000EF722F8220800F5501024E2
:101020005F6F000E1120606F020EDB2A030E01E3DA
:10103000DB2AB2D7DECFE9FFDDCFEAFF070EE926D4
:10104000000EEA22EFCF10F05CC1F6FF5DC1F7FFA2
:101050005EC1F8FF030EF626000EF722F822080004
:10106000F550105C32E3DECFE9FFDDCFEAFF070E7B
:10107000E926000EEA22EFCF11F05CC1F6FF5DC158
:10108000F7FF5EC1F8FF030EF626000EF722F822E6
:101090000800F550115C36E1DECFE9FFDDCFEAFF55
:1010A000060EE926000EEA22EFCF12F05CC1F6FF31
:1010B0005DC1F7FF5EC1F8FF020EF626000EF722B3
:1010C000F8220800F550125C1DE2DECFE9FFDDCF0B
:1010D000EAFF070EE926000EEA22EF50106E116AB1
:1010E00010C011F0106ADECFE9FFDDCFEAFF060E77
:1010F000E926000EEA22EF50010110245F6F000E76
:101100001120606F8ED0DECFE9FFDDCFEAFF020E47
:10111000E926000EEA22EF50106E116A010111500B
:101120000A19E8AE02D00A3504D00951105C0A5100
:10113000115802E3C2EC0CF006C15CF107C15DF18D
:1011400008C15EF15CC1F6FF5DC1F7FF5EC1F8FF4B
:101150000800F55001015F6F606B020EDB6A030E41
:10116000DB6A020EDBCF10F0030EDBCF11F0DECF17
:10117000E9FFDDCFEAFF020EE926000EEA22EF507A
:10118000000111AE02D0D89003D0105C000E1158AF
:101190001CE25FC110F060C111F0126A1050010131
:1011A0005C2711505D2312505E235CC1F6FF5DC1C8
:1011B000F7FF5EC1F8FF0800F5505F6F606B020E2D
:1011C000DB2A030E01E3DB2ACCD7DECFE9FFDDCF3C
:1011D000EAFF070EE926000EEA22EF5020E1DECFFB
:1011E000E9FFDDCFEAFF060EE926000EEA22EFCF87
:1011F00010F05CC1F6FF5DC1F7FF5EC1F8FF0800AB
:10120000F550105C0CE2DECFE9FFDDCFEAFF060E01
:10121000E926000EEA22EF5001015F6F606B01D0FA
:10122000B1DBCDDBBE0EE66E190EE66E000EE66E8D
:10123000E66A02DBE552E552E552E5524ED05AC16C
:10124000E9FF5BC1EAFF020EE926000EEA22EE503A
:10125000EFCFEAFFE96E53C1EFFF010EE66EE66ADB
:101260005AC1E6FF5BC1E6FF69DBE552E552E55294
:10127000E55233D0010E106EDECFE9FFDDCFEAFF7D
:10128000020EE926000EEA22EF50105C23E3DECFC7
:10129000E9FFDDCFEAFF020EE926000EEA22EF5059
:1012A0000101536F546B5351541105E0200E556FDB
:1012B0009EEC0DF002D0100E556F000EE66EE66A41
:1012C0005AC1E6FF5BC1E6FF39DBE552E552E55264
:1012D000E55201D057DB01D055DB040EE15C02E2A0
:1012E000E16AE552E16EE552E7CFD9FF1200D9CFAE
:1012F000E6FFE1CFD9FF020EE126FD0EDBCFE9FFCD
:10130000FE0EDBCFEAFF020EE926000EEA22EECF48
:10131000DEFFEDCFDDFFDECFE9FFDDCFEAFF010E1F
:10132000E926000EEA22EF50010A01E186D0020A06
:1013300001E183D0080A5AE0010A2EE00A0A01E01E
:101340007CD05AC1E9FF5BC1EAFF020EE926000E1C
:10135000EA22EE50EFCFEAFFE96EEF6A5AC1E9FFE9
:101360005BC1EAFF020EE926000EEA22EE50EFCF43
:10137000EAFFE96E010EE926000EEA22EF6A020E8C
:10138000E66EE66A5AC1E6FF5BC1E6FFD7DAE552D0
:10139000E552E552E55252D0020E106EDECFE9FF63
:1013A000DDCFEAFF040EE926000EEA22EF50D880D6
:1013B00010541AE25AC1E9FF5BC1EAFF020EE926A6
:1013C000000EEA22EE50EFCFEAFFE96EEF6A010E5F
:1013D000E66EE66A5AC1E6FF5BC1E6FFAFDAE552A8
:1013E000E552E552E55201D0CDDA28D0020E106E5A
:1013F000DECFE9FFDDCFEAFF040EE926000EEA2288
:10140000EF50D880105417E2DECFE9FFDDCFEAFFBE
:10141000020EE926000EEA22EF500DE1000EE66E04
:10142000E66A5AC1E6FF5BC1E6FF88DAE552E5529B
:10143000E552E55201D0A6DA01D0A4DA020EE15C51
:1014400002E2E16AE552E16EE552E7CFD9FF120010
:10145000D9CFE6FFE1CFD9FF060EE126FD0EDBCFA7
:10146000E9FFFE0EDBCFEAFF020EE926000EEA22BC
:10147000EECFDEFFEDCFDDFFDECFE9FFDDCFEAFF10
:10148000010EE926000EEA22EF500C0A01E120D1FC
:101490000F0A01E1D6D0020A01E178D0010A01E089
:1014A00017D15AC1E9FF5BC1EAFF020EE926000E1F
:1014B000EA22EE50EFCFEAFFE96EEF6A5AC1E9FF88
:1014C0005BC1EAFF020EE926000EEA22EE50EFCFE2
:1014D000EAFFE96E010EE926000EEA22EF6ADECF8E
:1014E000E9FFDDCFEAFF040EE926000EEA22EF5005
:1014F0000F0BE76E020EE7CFDBFFDECFE9FFDDCF9C
:10150000EAFF040EE926000EEA22EF50E844010B40
:10151000E76E030EE7CFDBFFDBCFE6FF020EDB500B
:10152000E824E552E724040DF3CF10F0F4CF11F0D6
:10153000000E1026040E1122040E10C0DBFF050E53
:1015400011C0DBFF040EDBCFE9FF050EDBCFEAFFA6
:10155000EF94EF500EE05AC1E9FF5BC1EAFF020EC3
:10156000E926000EEA22EE50EFCFEAFFE96E010E07
:10157000EF6E020EE66EE66A5AC1E6FF5BC1E6FF59
:10158000DDD9E552E552E552E552A3D0DECFE9FFC1
:10159000DDCFEAFF040EE926000EEA22EF500F0B22
:1015A000E76E020EE7CFDBFFDECFE9FFDDCFEAFF1C
:1015B000040EE926000EEA22EF50E844010BE76E24
:1015C000030EE7CFDBFFDBCFE6FF020EDB50E824A4
:1015D000E552E724040DF3CF10F0F4CF11F0000E24
:1015E0001026040E1122040E10C0DBFF050E11C0E0
:1015F000DBFF040EDBCFE9FF050EDBCFEAFFEF9444
:10160000030EDB5007E0040EDBCFE9FF050EDBCF56
:10161000EAFFEF8C030EDB5007E1040EDBCFE9FF9E
:10162000050EDBCFEAFFEF9C000EE66EE66A5AC1BC
:10163000E6FF5BC1E6FF82D9E552E552E552E5528D
:1016400048D0DECFE9FFDDCFEAFF040EE926000E29
:10165000EA22EF500F0BE76E020EE7CFDBFFDECF83
:10166000E9FFDDCFEAFF040EE926000EEA22EF5083
:10167000E844010BE76E030EE7CFDBFFDBCFE6FFAD
:10168000020EDB50E824E552E724040DF3CF10F0FE
:10169000F4CF11F0000E1026040E1122040E10C01B
:1016A000DBFF050E11C0DBFF040EDBCFE9FF050EEB
:1016B000DBCFEAFFEF84000EE66EE66A5AC1E6FF72
:1016C0005BC1E6FF3BD9E552E552E552E55201D058
:1016D00059D9060EE15C02E2E16AE552E16EE5529B
:1016E000E7CFD9FF120068A005D004EC05F06890A0
:1016F000FF0E15D068A613D06CCF57F101015751DA
:10170000E840E840E8401F0B0F0B06E06AEC05F0EC
:101710006896000E04D003D06896000E00D0120028
:1017200001015751E840E840E8401F0B0F0B040D42
:10173000F3CFE9FFF4CFEAFF110EE926010EEA220A
:10174000EE50ED1019E05751E840E840E8401F0B1B
:101750000F0B040DF3CFE9FFF4CFEAFF110EE926DA
:10176000010EEA22EECF10F0EFCF11F004D011C03D
:10177000FAFF1050F96EFBDF120001015751E840EB
:10178000E840E8401F0B0F0B040DF3CFE9FFF4CF47
:10179000EAFF110EE926010EEA22020EE926000EEA
:1017A000EA22EE50ED101DE05751E840E840E840D5
:1017B0001F0B0F0B040DF3CFE9FFF4CFEAFF110E5F
:1017C000E926010EEA22020EE926000EEA22EECFF9
:1017D00010F0EFCF11F004D011C0FAFF1050F96EE5
:1017E000FBDF1200D9CFE6FFE1CFD9FFFD0EDBCF43
:1017F0000BF1FE0EDBCF0CF1E552E7CFD9FF120063
:10180000D9CFE6FFE1CFD9FFFD0EDBCF0DF1FE0E04
:10181000DBCF0EF1E552E7CFD9FF1200D9CFE6FFBB
:10182000E1CFD9FFFD0EDBCF0FF1FE0EDBCF10F1C4
:10183000E552E7CFD9FF1200D9CFE6FFE1CFD9FFBC
:10184000FD0EDBCFE9FFFE0EDBCFEAFFD890E936D5
:10185000EA36D890E936EA36110EE926010EEA2278
:10186000FB0EDBCFEEFFFC0EDBCFEDFFE552E7CF4B
:10187000D9FF1200D9CFE6FFE1CFD9FFFD0EDBCFB4
:10188000E9FFFE0EDBCFEAFFD890E936EA36D890C2
:10189000E936EA36110EE926010EEA22020EE926A1
:1018A000000EEA22FB0EDBCFEEFFFC0EDBCFEDFFDE
:1018B000E552E7CFD9FF1200D9CFE6FFE1CFD9FF3C
:1018C000FD0EDBCFE9FFFE0EDBCFEAFFEF50400A53
:1018D000400B80090809E66EFD0EDBCFE9FFFE0E26
:1018E000DBCFEAFFE552E750EF6EE552E7CFD9FFD5
:1018F0001200D9CFE6FFE1CFD9FFFD0EDBCFE9FF24
:10190000FE0EDBCFEAFFEE52EF6AFD0EDBCFE9FF02
:10191000FE0EDBCFEAFFEF50400A400B80090809BA
:10192000E66EFD0EDBCFE9FFFE0EDBCFEAFFE552F0
:10193000E750EF6EE552E7CFD9FF1200D9CFE6FFAF
:10194000E1CFD9FFFF0EE76EFB0EDBCF10F0FC0EF0
:10195000DBCF11F0E7501016116AFD0EDBCFE9FF67
:10196000FE0EDBCFEAFFEE5210C0EFFFFD0EDBCF25
:10197000E9FFFE0EDBCFEAFFC80EEF6EE552E7CFC0
:10198000D9FF12000401080E016F840E046F006F6E
:1019900012000101565103E1040E556F02D0100EE2
:1019A000556F56C16EFF5669000EE66EE66AE66E2A
:1019B000E66A42DFE552E552E552E5521200D9CF20
:1019C000E6FFE1CFD9FF040EE12601015F5160116E
:1019D00056E0080E5F5D000E605905E25FC110F031
:1019E00060C111F003D0080E106E116A020E10C013
:1019F000DBFF030E11C0DBFFDE6ADD6ADECF10F015
:101A0000DDCF11F0020EDBCF12F0030EDBCF13F0AF
:101A10001250105C1350115831E2DECF12F0DDCFBE
:101A200013F0146A5C511224F36E5D511320F46EAE
:101A30005E511420F86EF4CFF7FFF3CFF6FF0800E5
:101A4000F550E66EDECF10F0DDCF11F05AC1E9FFA0
:101A50005BC1EAFF020EE926000EEA221050EE24D6
:101A6000E76E1150EE20EA6EE7CFE9FFE552E7504E
:101A7000EF6EDF2A010E01E3DB2AC0D70ED0020E83
:101A8000DB6A030EDB6A000EE66EE66AE66EE66A65
:101A9000D3DEE552E552E552E5525AC1E9FF5BC19A
:101AA000EAFFEE52020EDBCFEFFF5AC1E9FF5BC146
:101AB000EAFFEF50400A400B80090809E66E5AC160
:101AC000E9FF5BC1EAFFE552E750EF6E020EDBCFA4
:101AD00010F0030EDBCF11F0126A105001015C27E9
:101AE00011505D2312505E23020EDBCF06F0030E71
:101AF000DBCF07F006505F5F0750605B040EE15CD0
:101B000002E2E16AE552E16EE552E7CFD9FF120049
:101B10000101616BC20E626F010E636F646B656BD6
:101B2000666B080E676FAA91AA93E00EE66E1B0E15
:101B3000E66E00EC0CF0E552E5521200000EE66E87
:101B4000E66A010EE66EE66A1CEC0CF0E552E55220
:101B5000E552E552000EE66EE66A020EE66EE66AB1
:101B60001CEC0CF0E552E552E552E552000EE66E33
:101B7000E66A020EE66EE66A3AEC0CF0E552E552D1
:101B8000E552E5521A0E716E1E0E726E04010D6B57
:101B9000900E0E6F040E0F6F480E0C6F400E116FFB
:101BA000400E126F050E136F880E106F156B000E2E
:101BB000166F050E176F480E146FE00EE66E1B0EC3
:101BC000E66E00EC0CF0E552E5520101B96B100E27
:101BD000B46F040EB56F140EB66F040EB76F12001B
:101BE000D9CFE6FFE1CFD9FF040EE12658C1E9FFC6
:101BF00059C1EAFF020EE926000EEA22EECFDEFF0F
:101C0000EDCFDDFFDECFE9FFDDCFEAFFEF50630B65
:101C1000210A01E0D3D0DECFE9FFDDCFEAFF010EDC
:101C2000E926000EEA22EF50230A01E1C4D0010A9E
:101C300001E197D0030A3AE0010A2AE0220A25E0EE
:101C4000010A23E0070A21E0050A11E0010A01E088
:101C5000B2D0000EE66EE66A5AC1E6FF5BC1E6FF4F
:101C60009EEC0CF0E552E552E552E552A6D0000E8E
:101C7000E66EE66A5AC1E6FF5BC1E6FF9EEC0CF039
:101C8000E552E552E552E55298D0C2EC0CF095D001
:101C9000EC0EE66E1D0EE66E000EE66EE66A3AEC9F
:101CA0000CF0E552E552E552E55287D0DECFE9FF70
:101CB000DDCFEAFF060EE926000EEA22020EEECF85
:101CC000DBFF030EEDCFDBFF020EDBCF10F0030EC8
:101CD000DBCF11F0070ED8801054000E115407E22C
:101CE000070EF36E020EF3CFDBFF030EDB6A020E6C
:101CF000DBCFE6FF030EDBCFE6FF610EE66E010EE3
:101D0000E66E5AC1E9FF5BC1EAFF020EE926000E4A
:101D1000EA22EECFE6FFEFCFE6FF9FEC1EF0106E5B
:101D2000060EE15E1050020EDBCFE6FF030EDBCFA6
:101D3000E6FF5AC1E6FF5BC1E6FF9EEC0CF0E55200
:101D4000E552E552E552D40EE66E1D0EE66E000E2B
:101D5000E66EE66A1CEC0CF0E552E552E552E552FF
:101D60002CD0DECFE9FFDDCFEAFF020EE926000E20
:101D7000EA22EECFAAF1EDCFABF1620EE66E1F0EB6
:101D8000E66E000EE66EE66A1CEC0CF0E552E552DB
:101D9000E552E552000EE66EE66A5AC1E6FF5BC107
:101DA000E6FF9EEC0CF0E552E552E552E5520101EA
:101DB000010EFE6F02D0C2EC0CF002D0C2EC0CF0AF
:101DC000040EE15C02E2E16AE552E16EE552E7CF22
:101DD000D9FF1200000EE66EE66AE66EE66A1CECBB
:101DE0000CF0E552E552E552E5521200D9CFE6FF7C
:101DF000E1CFD9FF040EE126070EE66EE66A58C170
:101E0000E9FF59C1EAFF020EE926000EEA22EECFF1
:101E1000E6FFEFCFE6FF610EE66E010EE66E9FEC89
:101E20001EF0106E060EE15E1050146A1B0E156E49
:101E3000B70E166E176A14C004F015C005F016C070
:101E400006F017C007F061C109F062C10AF063C172
:101E50000BF064C10CF0CAEC1EF004C010F005C019
:101E600011F006C012F007C013F01006000E115A50
:101E7000125A135A10C0DFFF010E11C0DBFF020E11
:101E800012C0DBFF030E13C0DBFFD9CFE9FFDACFAF
:101E9000EAFFEECF10F0EECF11F0EECF12F0EFCF61
:101EA00013F01050AF6ED9CFE9FFDACFEAFFEECFD3
:101EB00010F0EECF11F0EECF12F0EFCF13F0080ECE
:101EC000D8901332123211321032E806F9E1105074
:101ED000B06E000EE66EE66AE66EE66A3AEC0CF06C
:101EE000E552E552E552E5524A0EE66E1F0EE66EE9
:101EF000000EE66EE66A1CEC0CF0E552E552E55287
:101F0000E552000EE66EE66A5AC1E6FF5BC1E6FFE7
:101F10009EEC0CF0E552E552E552E55258C1E9FF5E
:101F200059C1EAFFEE52080EEF6E58C1E9FF59C1E0
:101F3000EAFF880EEF6E040EE15C02E2E16AE55210
:101F4000E16EE552E7CFD9FF1200000EE66EE66AB9
:101F5000E66EE66A1CEC0CF0E552E552E552E552FD
:101F60001200000EE66EE66AE66EE66A1CEC0CF005
:101F7000E552E552E552E5521200D9CFE6FFE1CF36
:101F8000D9FFE652DF6AB4C1E9FFB5C1EAFFEF50FD
:101F9000800B08E0A0BA05D073EC0BF0000901E05B
:101FA000DF6AF1D7DF5000D0E552E552E7CFD9FF25
:101FB0001200D9CFE6FFE1CFD9FFE652DF6AB6C102
:101FC000E9FFB7C1EAFFEF50800B08E0A0BA05D0E7
:101FD00073EC0BF0000901E0DF6AF1D7DF5000D0AD
:101FE000E552E552E7CFD9FF1200D9CFE6FFE1CFA6
:101FF000D9FFB6C1E9FFB7C1EAFFEF50800B05E09A
:10200000A0BA02D073EC0BF0F4D7B6C1E9FFB7C1A8
:10201000EAFF020EE926000EEA22FD0EDBCFEEFFFC
:10202000FE0EDBCFEDFFB6C1E9FFB7C1EAFFEE520E
:10203000FC0EDBCFEFFFB6C1E9FFB7C1EAFFEF50FF
:10204000400A400B80090809E66EB6C1E9FFB7C136
:10205000EAFFE552E750EF6EFC0EDB5000D0E55290
:10206000E7CFD9FF1200B6C1E9FFB7C1EAFFEF50D1
:10207000800B03E0000E1BD018D0B6C1E9FFB7C13A
:10208000EAFFEE52400EEF6EB6C1E9FFB7C1EAFFBC
:10209000EF50400A400B80090809E66EB6C1E9FF1F
:1020A000B7C1EAFFE552E750EF6E400E00D01200D4
:1020B0000101B86B62DF0101AFA111D0000EB26F58
:1020C000060EB36FB4C1E9FFB5C1EAFF020EE926FF
:1020D000000EEA22400EEE6E060EED6E10D0400E9F
:1020E000B26F060EB36FB4C1E9FFB5C1EAFF020ECD
:1020F000E926000EEA22000EEE6E060EED6EAF1F10
:10210000B4C1E9FFB5C1EAFFEE52EFCFADF1B4C102
:10211000E9FFB5C1EAFFEE52400EEF6EB4C1E9FF30
:10212000B5C1EAFFEF50400A400B80090809E66E8E
:10213000B4C1E9FFB5C1EAFFE552E750EF6EAD511A
:1021400000D01200D9CFE6FFE1CFD9FF0101B86B73
:1021500030DF0101AE5111E0B6C1E9FFB7C1EAFFBE
:10216000020EE926000EEA22800EEE6E050EED6EDE
:10217000C00EB06F050EB16F10D0B6C1E9FFB7C188
:10218000EAFF020EE926000EEA22C00EEE6E050EF0
:10219000ED6E800EB06F050EB16FB6C1E9FFB7C12D
:1021A000EAFFEE52FE0EDBCFEFFFB6C1E9FFB7C18B
:1021B000EAFFEF50400A400B80090809E66EB6C1FD
:1021C000E9FFB7C1EAFFE552E750EF6EAE1FB85125
:1021D00000D0E552E7CFD9FF1200EBDEB6C1E9FF30
:1021E000B7C1EAFF020EE926000EEA22800EEE6E6B
:1021F000050EED6EB6C1E9FFB7C1EAFFEE52400E23
:10220000EF6E0101AE69800EB06F050EB16F120066
:10221000D0DEB6C1E9FFB7C1EAFF020EE926000E23
:10222000EA22000EEE6E050EED6EB6C1E9FFB7C1F3
:10223000EAFFEE52400EEF6E1200D9CFE6FFE1CF7B
:10224000D9FFE6520101AF69000EB26F060EB36FFF
:10225000B4C1E9FFB5C1EAFFEFCFDFFF400EDF16E3
:10226000B4C1E9FFB5C1EAFFDFCFEFFFB4C1E9FFB9
:10227000B5C1EAFF020EE926000EEA22000EEE6E5C
:10228000060EED6EB4C1E9FFB5C1EAFFEE52400E95
:10229000EF6E000EDF86DF8EB4C1E9FFB5C1EAFF45
:1022A000DFCFEFFFE552E552E7CFD9FF1200D9CFDC
:1022B000E6FFE1CFD9FFE652B4C1E9FFB5C1EAFFBD
:1022C000EF50800B26E1B4C1E9FFB5C1EAFFEFCFC3
:1022D000DFFF400EDF16DF7CB4C1E9FFB5C1EAFFC6
:1022E000020EE926000EEA22400EEE6E050EED6E9D
:1022F000000EDF86DF8EB4C1E9FFB5C1EAFFEE5202
:10230000400EEF6EB4C1E9FFB5C1EAFFDFCFEFFFCA
:1023100024D0B4C1E9FFB5C1EAFFEFCFDFFF400E23
:10232000DF16B4C1E9FFB5C1EAFF020EE926000ECF
:10233000EA22400EEE6E050EED6E000EDF86DF8E99
:10234000B4C1E9FFB5C1EAFFEE52400EEF6EB4C171
:10235000E9FFB5C1EAFFDFCFEFFFE552E552E7CF76
:10236000D9FF120026DEB6C1E9FFB7C1EAFFEE527F
:10237000EF6AB6C1E9FFB7C1EAFFEF50400A400B70
:1023800080090809E66EB6C1E9FFB7C1EAFFE55268
:10239000E750EF6E1200B4C1E9FFB5C1EAFFEF509C
:1023A000800B02E0000E01D0010E00D01200B6C179
:1023B000E9FFB7C1EAFFEF50800B02E0000E01D049
:1023C000010E00D01200D9CFE6FFE1CFD9FF010105
:1023D000AD6BB4C1E9FFB5C1EAFFEF50800B55E129
:1023E000B4C1E9FFB5C1EAFFEE52EF5032E0FC0E96
:1023F000DBCF10F0B4C1E9FFB5C1EAFFEE52EF50F8
:10240000D880105408E2B4C1E9FFB5C1EAFFEE522A
:10241000FC0EEFCFDBFFAD6BFC0EDB50AD5D19E2C8
:10242000AD51EA6A400FE96E050EEA22EF50E66E02
:10243000AD51E76EFD0EDBCFE9FFFE0EDBCFEAFF0D
:10244000E750E926000EEA22E552E750EF6EAD2B89
:10245000E3D7A0BA02D073EC0BF0B4C1E9FFB5C169
:10246000EAFFEE52400EEF6EB4C1E9FFB5C1EAFFDC
:10247000EF50400A400B80090809E66EB4C1E9FF3D
:10248000B5C1EAFFE552E750EF6E0101AD5100D052
:10249000E552E7CFD9FF12000101A85112E1400E29
:1024A000E66E680EE66E010EE66E8DDFE552E552D1
:1024B000E5520101A86FA85102E0E5EC04F001012A
:1024C000A96B1200D9CFE6FFE1CFD9FF0101A851D6
:1024D000000815E2A951EA6A680FE96E010EEA22C6
:1024E000EF50E66EFD0EDBCFE9FFFE0EDBCFEAFF1D
:1024F000E552E750EF6EA807A92B010E02D0000E9F
:1025000000D0E552E7CFD9FF1200D9CFE6FFE1CFE7
:10251000D9FF0101A851000813E2A951EA6A680F26
:10252000E96E010EEA22EF50E66EFD0EDBCFE9FF09
:10253000FE0EDBCFEAFFE552E750EF6E010E02D050
:10254000000E00D0E552E7CFD9FF12000101A86BC1
:04255000A96B120061
:0C255400D9CFE6FFE1CFD9FF020E000155
:10256000E05D09E2FD0EDB50C00B106E3F0E8B14D8
:1025700010108B6E10D0FD0EDB503C0B106EC30E96
:1025800089141010896EFE0EDB50290B106ED60ECA
:102590008A1410108A6EE552E7CFD9FF1200D9CF06
:1025A000E6FFE1CFD9FF020E0001E05D09E2FD0E7A
:1025B000DB50C00B106E3F0E94141010946E10D0B0
:1025C000FD0EDB503C0B106EC30E92141010926E79
:1025D000FE0EDB50290B106ED60E93141010936E66
:1025E000E552E7CFD9FF1200020E0001E05D04E2E0
:1025F000C00E82141DD01CD08150200B01E0010EB2
:10260000400DF3CF12F08150080B01E0010E200DB8
:10261000F3CF11F08150010B100DF3CF10F080506B
:10262000E840E8403F0B0F0B10101110121000D0C3
:102630001200D9CFE6FFE1CFD9FFE6529D92F29684
:10264000D9EC0FF00501530E006F300E016F310E03
:10265000026F030EE66E000EE66E050EE66EF5ECFA
:102660000FF0E552E552E55294948B949E929D9220
:102670004E0ECB6E050ECA6E270EBE6E100EBD6ED0
:102680009482938294800101CF93CF95CF97CF9975
:10269000CE6BCC6BCD6BCF91CF9BD091D093CF9F96
:1026A000D095D56A070ED56ED596CD6A8150DF6E6E
:1026B000F290F286E552E552E7CFD9FF1200D9CF6A
:1026C000E6FFE1CFD9FFE6520101CD510EE1400E08
:1026D000E66E600EE66E000EE66EE3EC11F0E5527B
:1026E000E552E5520101CD6FD16BD9EC0FF001013C
:1026F000CD51000801E3A0D202010451020A01E118
:102700005AD2030A01E13ED2010A01E095D2010149
:10271000D151EA6A600FE96E000EEA22EF50430AD7
:1027200001E128D2010A01E118D2030A01E112D223
:10273000010A01E10AD2720A01E1F6D1020A01E1BD
:10274000E5D1010A01E1E2D1340A01E1D2D1030A63
:1027500001E1C1D1250A01E1A0D1070A01E19BD124
:10276000170A01E17ED1160A01E179D1030A01E1DC
:1027700074D1350A01E16FD1010A01E16AD1030A7E
:1027800001E165D1010A01E160D1140A01E130D112
:10279000040A01E127D1030A01E0EFD11DEC11F099
:1027A0000101D36BD46BF29A9D90F296CF91CF97A3
:1027B0000201050E046F0101BE6BD0978990CFAF67
:1027C00014D0D9EC0FF005013E0E006F010EE66E3D
:1027D000000EE66E050EE66EF5EC0FF0E552E552E2
:1027E000E55273EC0BF073EC0BF058EC10F00101B8
:1027F000CD6FCD5101E1AED0CFAF12D0D9EC0FF0FB
:1028000005013E0E006F010EE66E000EE66E050E2F
:10281000E66EF5EC0FF0E552E552E55273EC0BF085
:102820000101D26B0101CD51D25D01E393D0B2C160
:10283000E9FFB3C1EAFFEF50FF081FE1010E0101FC
:10284000EA6AB225E96EB351EA22EF50FF0815E1BA
:102850000101BE690201060E046FCDC1D2F1010E65
:102860000101EA6AB225E96EB351EA22EF6A140E59
:10287000B2C1E9FFB3C1EAFFEF6EB2C1E9FFB3C174
:10288000EAFFEF1CB2C1E9FFB3C1EAFFEF6E010E30
:102890000101EA6AB225E96EB351EA22EF1CE66E45
:1028A000010EEA6AB225E96EB351EA22E552E75019
:1028B000EF6E010EEA6AB225E96EB351EA22EF2A01
:1028C000010EEA6AB225E96EB351EA22EF5005E142
:1028D000B2C1E9FFB3C1EAFFEF2A0101CFA703D0DC
:1028E00073EC0BF0FAD7B2C1E9FFB3C1EAFFEFCF47
:1028F000BDF1010E0101EA6AB225E96EB351EA2287
:10290000EFCFBCF1020E0101D327000ED423CFB1CB
:1029100013D0A0BA02D073EC0BF00101CF81BDC17E
:10292000D7FFBCC1D6FFF294F28AD58ECC6A0C0ECA
:10293000BD12CF8D898001D0CF87060E0201045DC4
:1029400001E108D0020E0101D2270101B227000ED9
:10295000B32368D7060E0201045D01E046D7046B7D
:1029600057EC11F073EC0BF073EC0BF00101D0A1FC
:1029700019D0D9EC0FF00501740E006FD4C110F01E
:10298000116A1050016F0101D3510501026F030E4E
:10299000E66E000EE66E050EE66EF5EC0FF0E55203
:1029A000E552E5520101CFB7FDD78990D0A316D0EB
:1029B000D9EC0FF00501430E006F0101D0A703D041
:1029C0000501460E006F010EE66E000EE66E050E66
:1029D000E66EF5EC0FF0E552E552E5520101010E0D
:1029E000CD6FCBD0ADD989909290010EA4D1C5D036
:1029F0000001E051010828E2D9EC0FF0DF6A050E72
:102A0000DF5C13E2DF50EA6ABF0FE96E010EEA22D3
:102A1000EF50E66EDF50EA6A000FE96E050EEA221B
:102A2000E552E750EF6EDF2AEAD7B2CF07F5B3CF12
:102A300006F5080EE66E000EE66E050EE66EF5EC87
:102A40000FF0E552E552E55298D0928096D09290E0
:102A500094D0898092D0899090D0CF8F8ED0D0831F
:102A60008CD0D9EC0FF00501740E006FD4C110F0BA
:102A7000116A1050016F0101D3510501026F030E5D
:102A8000E66E000EE66E050EE66EF5EC0FF0E55212
:102A9000E552E55272D0D08170D0D9EC0FF0CBCF97
:102AA00000F5BECF01F5CACF02F5D5CF03F505017C
:102AB000020E046FDC0E056F6C0E066F076B080EBE
:102AC000E66E000EE66E050EE66EF5EC0FF0E552D2
:102AD000E552E55252D0D151EA6A600FE96E000E1C
:102AE000EA22EFCFD5F1020EDA6F0201010E046F78
:102AF00044D0D151EA6A600FE96E000EEA22EFCFAE
:102B0000D5F1010EDA6F0201046F37D0D151EA6AB4
:102B1000600FE96E000EEA22EFCFD5F1020EDA6FF8
:102B20000201010E046F29D0D9EC0FF05DDD050123
:102B3000006F010EE66E000EE66E050EE66EF5EC19
:102B40000FF0E552E552E55218D0E66A66EC1DF04A
:102B5000E55213D082EC1DF010D0D151EA6A600F1B
:102B6000E96E000EEA22EFCFD5F1010EDA6F020115
:102B7000046F03D0F090F08600D00101CD07D12B77
:102B8000DB6B5AD00101DB2BD151EA6A600FE96E91
:102B9000000EEA22EF50E66EDB51EA6AD50FE96ECD
:102BA000010EEA22E552E750EF6ECD07D12BDA5144
:102BB000DB5D01E241D00101D551420A35E0730AE3
:102BC0002BE0010A21E0350A16E0030A01E031D0CA
:102BD000CA6AD6C1CBFFD751000802E2D7C1D6F1ED
:102BE000D6417F0BBE6ED6A102D0BD8A01D0BD9A60
:102BF000050ECA6E1ED0D56AF296070ED615D512EE
:102C0000F290F286F29015D0D7C1E6FFD6C1E6FF6A
:102C1000A1DCE552E5520DD0D7C1E6FFD6C1E6FFF3
:102C2000BEDCE552E55205D09EA802D0D6C1ADFF6C
:102C300000D00201046B00D00101CFBB59D0CFA35B
:102C400018D0B0C1E9FFB1C1EAFFC8C1EFFFCC2B7A
:102C50000101B02B000EB123B0C1E9FFB1C1EAFF01
:102C6000CAC1EFFF0101CC2B0101B02BB12301013F
:102C7000CF93CFA518D0B0C1E9FFB1C1EAFFC9C158
:102C8000EFFFCC2B0101B02B000EB123B0C1E9FF47
:102C9000B1C1EAFFCBC1EFFF0101CC2B0101B02B89
:102CA000B1230101CF95400ECC5D03E0CF51100B55
:102CB0001DE0CCC1E6FFA2EC10F0E5520101D0A569
:102CC00012D00201046B08EC11F0400E0101CC5D42
:102CD0000AE1E66A000EE66E050EE66EF5EC0FF010
:102CE000E552E552E5520101CC6BCF99000E23D09D
:102CF000D9EC0FF0050100690169026903690469F3
:102D000005690101060ECC6FCCC1E6FF000EE66E30
:102D1000050EE66EF5EC0FF0E552E552E552CD906A
:102D2000D59EF294F2900101CC6BCF99CF9B899004
:102D300007D8010E00D0E552E552E7CFD9FF1200C7
:102D4000BD6AD59EF29AD56ACA94B16ABA6ACD9024
:102D50009D90F29694848B941200F250080B4AE0F6
:102D6000F250010B47E081CFBBF1D5BE22D001016B
:102D7000BBB91ED0EDEC10F0D76AD66AF28AF29495
:102D8000D58ECF6ACE6A9E909D80CD800001E051A5
:102D900001080EE2A090B16A050EBA6EA190A08063
:102DA000060EB16EB36A010EB26EB1800101C76B3F
:102DB0001FD0D59ED6CFBBF1D7CFBAF1D76AD66A8E
:102DC000F294D58ECD90CF6ACE6ACD800101CFB37B
:102DD00006D0BAC1C8F1BBC1CAF1CF8309D0CFB503
:102DE00006D0CF85BAC1C9F1BBC1CBF101D0CF8B21
:102DF000F2906DD0A150010B20E0A050010B1DE01E
:102E0000060E0101C75D18E2C751EA6ABF0FE96EFD
:102E1000010EEA22BCCFEFFFC72BC751EA6ABF0FF2
:102E2000E96E010EEA22BBCFEFFFC72BA190060E81
:102E3000C75D02E1A090BA6A4AD0F250200B3DE093
:102E4000F250040B3AE0CD90B190D59EF29401017E
:102E5000CFA121D0F29ACFB70BD0BE5101E1D087DC
:102E6000F30EBD168990CF91F290F286F2902FD09A
:102E7000CFBD05D0CC6A0C0EBD12CF8D03D0F30EA2
:102E8000BD16CF9DBDC1D7FFBCC1D6FFF294F28A5B
:102E9000D58ECF9711D0CFB305D0C869CA69CF837B
:102EA000CF8908D0CFB505D0CF85C969CB69CF8987
:102EB00001D0CF8BF286F2900AD09D50010B07E033
:102EC0009E50010B04E00101CF89D0859E90120035
:102ED00088EC0DF0D6D9040EE66EE66A4D0EE66E6D
:102EE0003C0EE66E000EE66E0A0EE66E3C0EE66ED8
:102EF000000EE66EF80EE66E3B0EE66E000EE66E17
:102F000034EC04F0106E0B0EE15E1050DBEC04F0BC
:102F1000A6EC12F056D90001010EE26FA0BA02D061
:102F2000E5EC04F0040E0101555D02E2899010D039
:102F3000200E0101555D02E289800AD00001E20500
:102F400007E1200E0101555D03E189900001E26B6C
:102F5000200E0101555DE2E30001FE51040A11E07B
:102F6000070A09E0010A01E012D002EC1AF0000998
:102F700001E027D988D05FEC13F0000901E021D9E6
:102F800082D085EC1DF0000901E01BD97CD08FECCC
:102F90001CF04CEC12F0E10EE66E000EE66E85ECD5
:102FA00012F0E552E552000813E20001E15105E09C
:102FB000010A03E0030A01E00BD00001020EFE6FDC
:102FC000F4EC19F002EC1AF0000901E0FAD800D094
:102FD000E10EE66E000EE66E62EC12F0E552E5528E
:102FE000010850E10001E151240A49E0740A40E07F
:102FF000200A3EE0260A3AE0200A38E0220A34E0BD
:10300000200A32E0210A2AE0200A28E0260A20E0ED
:10301000200A1EE0010A03E0200A01E033D07BEC25
:103020001CF00001010EFE6FD9EC0FF005014F0EF0
:10303000006F05014B0E016F020EE66E000EE66E8C
:10304000050EE66EF5EC0FF0E552E552E5521AD0AA
:103050000001030EFE6F19EC13F014D00001040EF2
:10306000FE6F4EEC1DF00ED010D80CD05BD90AD0FC
:103070000001050EFE6FEEEC1BF0A3D803D00BEFA2
:1030800000F000D000D04AD71200D9CFE6FFE1CF40
:10309000D9FF030EE126DF6AF2969D9293888B9406
:1030A0009494BD6ACA6A100EF36E010EF3CFDBFF73
:1030B000270EF36E020EF3CFDBFF010EDBCF10F015
:1030C000DB06020EDBCF11F001E2DB06105011101F
:1030D00001E0F3D781B802D0000EDF80020E0001BC
:1030E000E05D1EE182A2DF8494948B84E80EF36E8F
:1030F000010EF3CFDBFF030EF36E020EF3CFDBFF07
:10310000010EDBCF10F0DB06020EDBCF11F001E287
:10311000DB061050111001E0F3D782B2DF868B94EA
:103120009E929D92520ECB6E050ECA6E290EBE6EF9
:103130001C0EBD6E400EF36E010EF3CFDBFF0D0EC5
:10314000F36E020EF3CFDBFF010EDBCF10F0DB06D8
:10315000020EDBCF11F001E2DB061050111001E08E
:10316000F3D781B8DF82D9EC0FF0DF501DE08990F2
:103170000501460E006F410E016F0C0EDF14E84092
:10318000E8403F0B300F026F030EDF14300F036F68
:10319000040EE66E000EE66E050EE66EF5EC0FF020
:1031A000E552E552E55201D0BDD8030EE15C02E2E2
:1031B000E16AE552E16EE552E7CFD9FF12008FEFE9
:1031C0001CF07BEC1CF00001FE6B1200D9CFE6FF77
:1031D000E1CFD9FF040EE12654D8A6EC12F0A0EC02
:1031E00016F0EFDF9EEC0DF0DE6ADD6ADECF10F048
:1031F000DDCF11F0060E105C000E115838E28990F8
:10320000020EDB6A030EDB6A020EDBCF10F0030E48
:10321000DBCF11F0126AD8901250000A06E6FF0EBA
:10322000105CFF0E1158000E125806E2020EDB2A47
:10323000030E01E3DB2AE8D78980020EDB6A030E66
:10324000DB6A020EDBCF10F0030EDBCF11F0AC0E09
:10325000105C7F0E115806E2020EDB2A030E01E31A
:10326000DB2AEFD7DF2A010E01E3DB2ABFD7040EEA
:10327000E15C02E2E16AE552E16EE552E7CFD9FF97
:103280001200D9CFE6FFE1CFD9FF020EE1260F0EE3
:10329000C112B56A8B928B9094929490816AEB0ED6
:1032A000936EF19E0A0EDE6EDD6ADFCF10F0DF0650
:1032B000010EDBCF11F001E2DB061050111001E02E
:1032C000F4D781A204D00001010EE06F03D0000109
:1032D000020EE06FF18E93689482938294809494AE
:1032E0008B9489809290BD6ABA6ACD6ACA6AF18E5F
:1032F000160E8A1693169388F290F2969384F184B0
:103300009F809F82A282F180F08C9F84D08EF28E6B
:10331000020EE15C02E2E16AE552E16EE552E7CFBE
:10332000D9FF1200D9EC0FF00501560E006F300ED8
:103330000001E0250501016F320E026F340E036FAC
:10334000040EE66E000EE66E050EE66EF5EC0FF06E
:10335000E552E552E5521200DACFE4FFE2CFDAFFA0
:10336000E9CFE4FFEACFE4FFE6520001FE511AE0A4
:10337000040A15E0050A10E0030A0BE0010A06E062
:10338000060A01E012D021EC1CF010D0ADEC16F0D2
:103390000DD0BCEC1AF00AD0DAEC1CF007D0EDEC42
:1033A0001DF004D0DEEC19F001D000D0E552E5CFDD
:1033B000EAFFE5CFE9FFE5CFDAFF1100DAEF1CF015
:1033C0001200D8CFE4FFE0CFE4FFE46EDACFE4FFF1
:1033D000E2CFDAFFE652E552E5CFDAFFE550E5CF7E
:0833E000E0FFE5CFD8FF10006B
:0833E800D9CFE6FFE1CFD9FFC8
:1033F000E652F2969D928150DF6EE552E552E7CF9C
:10340000D9FF1200D9CFE6FFE1CFD9FFE652DF6A3C
:103410004CEC12F0E10EE66E000EE66E62EC12F07D
:10342000E552E552010801E084D0D9EC0FF0DF50FD
:10343000020A01E17CD0030A6CE0010A01E079D0C4
:103440000001E151130A63E0020A60E0150A48E056
:10345000050A26E0030A0FE0020A09E0E1C0E1F1F3
:103460000101040EE66FE76B010EDF6E51D07DD8CF
:10347000FF0E76D04DD00501310E006F410E016F69
:103480004C0E026F530E036F040EE66E000EE66ED6
:10349000050EE66EF5EC0FF0E552E552E55238D038
:1034A000F290F296D9EC0FF089900001020EFF6FB6
:1034B000EDEC10F00101DE6BDF6BDC6BDD6B81503E
:1034C000B0C1E9FFB1C1EAFFEF6E9D92CA94938843
:1034D0001F0E9316F290F286F28CF28E898018D02D
:1034E0000501400E006F080E016F410E026F020EC3
:1034F000036F046B050EE66E000EE66E050EE66EBB
:10350000F5EC0FF0E552E552E55202D001D000D0C3
:1035100010D00101E751EA6AE10FE96E010EEA22DB
:10352000E1C0EFFFE72BE651E75D01E202D0DF6A81
:1035300000D00001FF51030A0DE0070A08E0060A67
:1035400001E00CD0020EFF5DFDE073EC0BF000011A
:10355000030EFF6F0AD8FF0E03D000D0000E00D07C
:10356000E552E552E7CFD9FF12009D92CA94F29638
:103570000001FF6B08EF11F09D50020B5CE09E50C4
:10358000020B59E08150B0C1E9FFB1C1EAFFEF6E13
:10359000160E106EB0C1E9FFB1C1EAFF1050EF1A6C
:1035A0000101DE2B000EDF230101B02BB12301014D
:1035B000DC2BDD233E0EDE1901E1DF5105E0000EBC
:1035C000DC5D100EDD5919E3000EDC5D100EDD59D7
:1035D0000AE30101B007000EB15B990EB0C1E9FF2B
:1035E000B1C1EAFFEF6EDEC1E6FFA2EC10F0E552DA
:1035F0000101DE6BDF6B73EC0BF00101000EDC5D93
:10360000100EDD5916E3D9EC0FF0DCC110F0DDC16E
:1036100011F00001116A3F0E10161050111004E055
:103620000001030EFF6F03D00001040EFF6FCA9468
:103630009D929E924ED0F250080B4BE0F250010B3F
:1036400048E081B845D0F296F290960ECB6E090E06
:10365000CA6E9E929D82CA84B0C1E9FFB1C1EAFFE1
:10366000EF6A0101B02B000EB123B0C1E9FFB1C177
:10367000EAFFEF6AB02BB123B0C1E9FFB1C1EAFFA5
:10368000EF6AB02BB123B0C1E9FFB1C1EAFFEF6A25
:10369000B02BB1238150B0C1E9FFB1C1EAFFEF6E99
:1036A000160E106EB0C1E9FFB1C1EAFF1050EF1A5B
:1036B000B02B000EB123050E0101DC27000EDD2327
:1036C000050EDE27000EDF2389900001020EFF6F3A
:0436D000F290120062
:0C36D400BA6AF19AA090F096F090F2967D
:1036E000F29ACD969D909E909D929E92CA94CC6A9D
:1036F000140E9312030E94120101FE6BE5EC04F01C
:103700000101AAA1FBD7AAB301D068D8F5D712004E
:103710000101F393F46BF56BF395F391F26BCA6AC5
:10372000CC6AC00ECB6EF397EDEC10F0F2869D8262
:103730000101F3B303D073EC0BF0FAD7E5EC04F01E
:103740000101F3A529D0F59FF3B3F58FF451B0C172
:10375000E9FFB1C1EAFFEF6E0101B02B000EB1230A
:10376000F4C110F0F5C111F0080E0F0B05E0D89070
:1037700011321032E806FBE11050B0C1E9FFB1C1CF
:10378000EAFFEF6E0101B02B000EB123020E010122
:10379000F227F395F46BF56B1E0EF25D05E0F35125
:1037A000010B0AE0F25108E0F2C1E6FFA2EC10F0D2
:1037B000E5520101F26BF3910101AAB1BFD70101FA
:1037C000F2510BE0F2C1E6FFA2EC10F0E552F296E6
:1037D0009D929E929D909E90CD901200030ECA6E77
:1037E000CC6A4B0ECB6E0101F26BF86BF387E66A85
:1037F000EEEC1EF0E552EDEC10F0F090F086E5EC0A
:1038000004F01E0E0101F25D0BE3F29EF2C1E6FF31
:10381000A2EC10F0E552000902E00101F26BF28E19
:103820000101AAB1ECD7F096F090CA949D929E92B5
:103830000101F25105E0F2C1E6FFA2EC10F0E55201
:103840001200D9CFE6FFE1CFD9FFE652F050080BC6
:103850000EE0F050010B0BE0F090CAA404D001017F
:10386000F82BF38503D0CA849E929D823FD09D5051
:10387000020B1DE09E50020B1AE00101F3A70ED0CF
:10388000B0C1E9FFB1C1EAFFF8C1EFFF0101B02B00
:10389000000EB1230101F22B9E9208D0F42B000EF2
:1038A000F5239E92CD90CF6ACE6ACD801FD0F25084
:1038B000080B13E0F250010B10E08150DF6EDFA81F
:1038C00003D00101F39302D00101F383F385CD907E
:1038D000CF6ACE6ACD80F29009D09D50010B06E0F0
:1038E0009E50010B03E00101F3819E90E552E552E9
:0638F000E7CFD9FF120032
:0A38F600D9CFE6FFE1CFD9FFE6527B
:103900008150DF6E0101FF6BBD6ACA6A9D929E9273
:10391000F290F286E552E552E7CFD9FF1200040E8D
:103920000101FF5D46E1D7EC11F0000942E005011D
:10393000006B0201020E036F070E035D10E205012A
:10394000009F004702010351EA6A600FE96E000E12
:10395000EA22EF50050100130201032BEDD760C0EE
:1039600001F5070E036F0D0E035D10E20501019FC7
:10397000014702010351EA6A600FE96E000EEA2274
:10398000EF50050101130201032BEDD70501026B76
:10399000036B046B056B060EE66E000EE66E050EFD
:1039A000E66EF5EC0FF0E552E552E5520101FF6BD2
:1039B000F2861200F250080B16E0F250010B13E0F1
:1039C0000101FF510EE1100E81140BE1F296898086
:1039D000DE0ECB6E290ECA6E9E929D82CA84010EA7
:1039E000FF6FF2905AD09D50020B57E09E50020B91
:1039F00054E00101FF51030A1EE0010A12E0030A2C
:103A000001E04AD0CA94DE0ECB6E590ECA6E020196
:103A1000026B0101020EFF6F9E929D82CA84899003
:103A20003BD08150100B01E0010E0201006F01013B
:103A3000030EFF6F31D08150100B01E0010E020127
:103A4000016F00050BE1015109E10251EA6A600FC3
:103A5000E96E000EEA22010EEF6E11D000510AE16C
:103A6000010508E10251EA6A600FE96E000EEA22E0
:103A7000EF6A05D00101FF6BCA94F2860DD00101F7
:103A8000020EFF6F0201022B0D0E025D04E1010127
:0C3A9000040EFF6FCA9400D09E9212003A
:043A9C00D9EC0FF062
:103AA0000501550E006F300E016F310E026F030ECF
:103AB000E66E000EE66E050EE66EF5EC0FF0E552D2
:103AC000E552E5520001E36BE46B1200D9CFE6FF4B
:103AD000E1CFD9FFC00E9412240EAC6EFE0EDB04B3
:103AE00002E1900E01D0000EAB6E080EB86E200EF3
:103AF0009D6E0001EF6BF06BFB6BFC6BE552E7CF4B
:103B0000D9FF1200AC6AAB6A12000001E351020A4D
:103B100012E0030A0DE0010A01E046D0A6EC12F023
:103B2000010EE66ED3DFE5520001010EE36F3CD0DB
:103B3000020EE36F39D0010EE66E600EE66E000EE7
:103B4000E66EE3EC11F0E552E552E55200090CE0B7
:103B50000001EF51EA6AE50FE96E000EEA2260C04B
:103B6000EFFFEF2B070EEF170001FC51FB5D1BE091
:103B7000D9EC0FF089700001FC51EA6AF10FE96E8F
:103B8000000EEA22EFCF00F5010EE66E000EE66EA3
:103B9000050EE66EF5EC0FF0E552E552E552000138
:103BA000FC2B070EFC1700D09E50100B0EE0F051BE
:103BB000EF5D0BE0F051EA6AE50FE96E000EEA22D4
:103BC000EF50AD6EF02B070EF017060EAB1402E0AF
:103BD000AB98AB88000E00D012009EAA0CD000015A
:103BE000FB51EA6AF10FE96E000EEA22AECFEFFF59
:083BF000FB2B070EFB1712006E
:083BF800120110010200000897
:103C0000D80408FD02000102030109024300020179
:103C10000080E109040000010202010005240010F7
:103C20000104240202052406000105240101010704
:103C30000581030A000209040100020A00000007CE
:103C4000050202400000070582024000000403094B
:103C5000042A03440061006E006700650072006F73
:103C600000750073002000500072006F0074006F38
:103C70000074007900700065007300120343004473
:103C800000430020005400650073007400120330EC
:0F3C9000003000300030003000300030003100D4
:013C9F000024
:103CA0002A0EF66E080EF76E000EF86E010109007E
:103CB000F550ED6F0900F550EE6F03E1ED6701D0AF
:103CC0003DD00900F550E86F0900F550E96F090093
:103CD000F550EA6F09000900F550E96E0900F5504A
:103CE000EA6E090009000900F550EB6F0900F55074
:103CF000EC6F09000900F6CFEFF1F7CFF0F1F8CF44
:103D0000F1F1E8C1F6FFE9C1F7FFEAC1F8FF0101EF
:103D1000EB5302E1EC5307E00900F550EE6EEB07C0
:103D2000F8E2EC07F9D7EFC1F6FFF0C1F7FFF1C1F8
:0E3D3000F8FF0101ED07000EEE5BBFD7120099
:023D3E00D9CFDB
:103D4000E6FFDACFE6FFFA0EE3CFD9FFFB0EE3CFB3
:103D5000DAFFFC0EE3CFE9FFFD0EE3CFEAFFE9CF88
:103D6000F3FFEACFF4FFF80EE35003E1F90EE3505E
:103D700008E0F80EE30602E2F90EE306DECFEEFFFE
:103D8000F2D7FF0EE3CFDAFFE552FF0EE3CFD9FF04
:043D9000E5521200E6
:0C3D9400036A026A016A006A200EE76EF2
:103DA000D890043605360636073600360136023618
:103DB00003360950005C0A5001580B5002580C5051
:103DC000035809E30950005E0A50015A0B50025A89
:0C3DD0000C50035A042AE72EE4D712001E
:043DDC00FF0EE350A3
:103DE000196EEF0E01D0F30EE76EE72EF5EF1EF021
:103DF0000C0E186EE76AE72EFBEF1EF0182EFAEF96
:0A3E00001EF0192EF3EF1EF0120061
:063E0A00000EF36E00EE55
:103E100000F0080E01D81200EA6002D0EE6AFCD76A
:0A3E2000F350E9601200EE6AFCD7CF
:063E2A0013EE00F023EE90
:103E300000F0F86A0F9C50EC1EF023EC1FF068ECC9
:063E400017F0FBD7120091
:023E4600120068
:023E4800000078
:063E4A004E4F454D5300F0
:013E50000071
:013E51000070
:020000040030CA
:0100000024DB
:010001000EF0
:010002003FBE
:010003001EDE
:010005008179
:010006008178
:010008000FE8
:01000900C036
:01000A000FE6
:01000B00E014
:01000C000FE4
:01000D0040B2
:00000001FF
